:020000040800F2
:10000000C8AB01200D020008F1C1000819B20008B8
:10001000E1C1000831310008B946010800000000C4
:10002000000000000000000000000000B100010816
:100030002939000800000000A1C7000829040108B0
:1000400027020008270200082702000827020008EC
:10005000270200082702000827020008593B000871
:1000600027020008693B0008270200082702000851
:1000700027020008270200082702000827020008BC
:1000800027020008270200082702000827020008AC
:10009000270200082702000827020008793B000811
:1000A000270200082702000827020008270200088C
:1000B0002702000849070108A907010827020008CC
:1000C000270200082702000827020008270200086C
:1000D000270200083114010827020008270200083F
:1000E000270200082702000827020008270200084C
:1000F000270200082702000827020008270200083C
:1001000027020008D9D900082702000827020008A2
:10011000270200082702000827020008270200081B
:100120002702000827020008E9320008013300080E
:1001300027020008270200082702000827020008FB
:10014000270200082702000827020008E9C2000869
:10015000270200081933000831330008270200087D
:1001600027020008270200082702000827020008CB
:1001700027020008270200082702000800000000EC
:1001800027020008270200082702000827020008AB
:10019000270200082702000827020008270200089B
:1001A00071B2000827020008270200082702000891
:1001B000270200082702000827020008270200087B
:1001C000270200082702000800000000270200089C
:1001D000270200082702000827020008270200085B
:1001E000270200082702000827020008270200084B
:1001F0002702000827020008DFF80CD000F0D2FA2E
:100200000048004781AF0108C8AB0120064880477D
:1002100006480047FEE7FEE7FEE7FEE7FEE7FEE7EB
:10022000FEE7FEE7FEE7FEE751050108F9010008D9
:100230002DE9F05F0546002092469B46884606461B
:10024000814640241BE0284641464746224600F0AE
:10025000C9F853465A46C01A914110D31146184660
:10026000224600F0B0F82D1A67EB01084F462246EF
:100270000120002100F0A7F817EB00094E41201ED5
:10028000A4F10104DFDC484631462A464346BDE876
:10029000F09F10B5441A0346944209D283181144C2
:1002A00003E011F8014D03F8014D521EF9D210BDC3
:1002B00040EA0104A40703D009E010C9121F10C3CB
:1002C000042AFAD203E011F8014B03F8014B521E45
:1002D000F9D210BDD2B201E000F8012B491EFBD2C9
:1002E00070470022F6E710B513460A460446194641
:1002F000FFF7F0FF204610BD421E12F8013F002B11
:10030000FBD111F8013B02F8013B002BF9D17047FA
:1003100030B505462A460B4612F8010B13F8014B7F
:1003200008B1A042F8D01CB1002802D06D1CF1E742
:10033000284630BDCAB2401E10F8011F8A4202D0C2
:100340000029F9D100207047421C10F8011B002938
:10035000FBD1801A704710B5002200E0521C835C6C
:100360008C5CA34201D1002BF8D1D8B2E1B2401A83
:1003700010BD034611F8012B00F8012B002AF9D11A
:10038000184670470022CBB20178994200D102464C
:10039000401C0029F8D11046704730B50B46014685
:1003A00000202022012409E021FA02F59D4205D314
:1003B00003FA02F5491B04FA02F52844151EA2F1BE
:1003C0000102F1DC30BD202A04DB203A00FA02F100
:1003D000002070479140C2F1200320FA03F3194333
:1003E00090407047202A04DB203A21FA02F00021D5
:1003F000704721FA02F3D040C2F120029140084335
:10040000194670472DE9FE4F804681EA0300C00F70
:100410000C46009021F0004123F00045B8EB0200AB
:10042000A94105D24046214690461C460B4602464D
:1004300023F00040104347D0270DC7F30A00C3F351
:100440000A510290401A019040286BDAC3F313005E
:1004500040F4801B0098924620B10023D2EB030A9F
:1004600063EB0B0B01985946C0F140025046FFF771
:10047000AAFF06460D4650465946019A00F0A4F9D7
:1004800010EB08006141002487EA115284EAE77307
:100490001A4340D0009A62B3019A012A4FEA0752E8
:1004A00015DC001B61EB02014FF0004202EA07522B
:1004B000CDE90042001C41F5801132462B4600F088
:1004C000A4F903B0BDE8F08F40462146F9E7001BD0
:1004D00061EB0201001C41F5801300185B412018FC
:1004E000A2F5001747EB030140EAD570B6196D413C
:1004F00011E06D084FEA360645EAC0754FEA07522B
:10050000001B61EB0201001C41F5801149084FEA14
:1005100030000019514132462B4603B0BDE8F04F80
:1005200000F064B90098012240000023D0EB0202E1
:1005300063EBE073009821464FEAE074B8EB0000EB
:1005400061EB0401E9E783F000435BE781F00041E0
:1005500058E72DE9FE4F81EA030404F0004421F03E
:10056000004100944FF0000B23F0004350EA0104D7
:100570005ED052EA03045BD0C3F30A54C1F30A55B8
:100580002C44A4F2F3340194A0FB0254C1F31301F0
:1005900041F48011C3F3130343F4801301FB0244BD
:1005A00000FB034E840A970A44EA815447EA8357C2
:1005B000A4FB076802958D0A05FB07854FEA932C7B
:1005C00004FB0C542705029D4FEA065847EA1637EC
:1005D000B5EB08056EEB070C870E920E47EA811704
:1005E00042EA8312A7FB0201B6EB0B0164EB0004A5
:1005F0002B0D43EA0C335E1844EB1C50DA4651468F
:10060000E7FB0201C5F313044FEA0B3343EA14532B
:100610004FEA0432019C43EA0603A4F10C0402945D
:10062000009CCDE900B400F0F0F803B0BDE8F08F15
:1006300000200146F9E72DE9F04D81EA030404F0BA
:10064000004B21F0004514464FF0000A23F0004112
:1006500050EA050220D054EA01021DD0C5F30A5722
:100660000246C5F31303C1F31300C1F30A5640F465
:10067000801543F48013A7EB0608101BD64608F23A
:10068000FD3873EB050002D308F1010801E0921870
:100690005B41B8F1000F03DA00200146BDE8F08DA0
:1006A00000204FF48011064684460EE0171B73EBC2
:1006B000050705D3121B63EB050306434CEA010C47
:1006C00049084FEA300092185B4150EA0107EDD12A
:1006D00052EA030012D082EA040083EA05010843CB
:1006E00005D0101BAB4106D20122002306E00022F8
:1006F0004FF0004302E06FF0010253101AEB0600C6
:100700004CEB085110EB0A0041EB0B01BDE8F04D3A
:1007100000F06CB870B521F0004303430CD0C1F376
:100720000A550024D5EB040564EB0403D617AD1A73
:10073000B34102DB0020014670BD201841EB02519D
:1007400070BDC1F30A52C1F3130140F2FF3341F40B
:1007500080119A4202DA00200146704740F233438A
:100760009A42A2F2334202DC5242FFF73BBEFFF74D
:100770002ABE000030B5041E71F1000404DB4FF006
:100780000044404264EB0101141E73F1000405DBD8
:100790001C464FF00043524263EB0403994208BFEA
:1007A000904230BD064C074D06E0E06840F0010382
:1007B00094E8070098471034AC42F6D3FFF720FDC9
:1007C0002C4602084C460208202A06DBCB17203AAA
:1007D00041FA02F043EAE07306E041FA02F3D04046
:1007E000C2F12002914008431946704710B5141E0B
:1007F00073F1000408DA401C41F1000192185B41DA
:100800001A4301D120F0010010BD2DE9F04D9246B0
:100810009B4611B1B1FA81F202E0B0FA80F22032C7
:100820009046FFF7D0FD04460F4640EA0A0041EA31
:100830000B0153465A46084313D0114653EA0100B0
:1008400019D0C8F140025046FFF7CCFD05460E46D0
:10085000504659464246FFF7B6FD084305D00120F1
:1008600004E020463946BDE8F08D0020054346EA05
:10087000E0762C4337430A986305E40AA0EB0800AE
:100880000022FD0A44EA47540A3002D500200146FE
:10089000E9E7010510196941DDE9084500196941D9
:1008A000BDE8F04DA2E770B58C1810F8015B15F0AB
:1008B000070301D110F8013B2A1106D110F8012BD2
:1008C00003E010F8016B01F8016B5B1EF9D12B07F7
:1008D00005D40023521E0DD401F8013BFAE710F8AD
:1008E000013BCB1A921C03E013F8015B01F8015B9A
:1008F000521EF9D5A142D8D3002070BD00000000DF
:1009000080B596B001468DF857000DF117004022D2
:10091000049003911146FFF7E4FC9DF8570000286E
:1009200018BF012044F2C931C0F60201049A0290B6
:100930001046029A21F0DCFF44F23141C0F6020178
:10094000049A01901046FFF7D7FC049900900846DE
:1009500003F0B2F844F27130C0F602004FF0C80163
:1009600014F03EF816B080BD80B5ADF50A7D134693
:100970008C468990ADF822128DF821220DF12100CC
:100980004FF400710693CDF814C0FFF7AAFC0020C5
:100990008DF820009DF82102042817DCFFE79DF860
:1009A0002122BDF8223244F28D31C0F602010DF150
:1009B0002100049021F09CFF44F23141C0F6020175
:1009C000049A03901046FFF797FC14E0BDF822222A
:1009D00044F29E31C0F602010DF12100029021F097
:1009E00087FF44F23141C0F60201029A019010469D
:1009F000FFF782FCFFE70DF1210003F05DF844F200
:100A00006F30C0F60200C82113F0EAFFBDF82212D1
:100A100044F2A822C2F20002118000210791FFE7F0
:100A2000079844F2A821C2F20001098888420EDA30
:100A3000FFE789980799405C44F2A822C2F20002BD
:100A400011448870FFE7079801300790E8E744F207
:100A5000A820C2F2000030F8022B42F62401C2F2B4
:100A600000010090084600990AF036FBFFE742F6C5
:100A70002400C2F2000009F093FF212801D1FFE712
:100A8000F5E744F27130C0F6020042F2107113F043
:100A9000A7FF8DF820000DF50A7D80BD0000000045
:100AA00080B594B0139003A840210290FFF719FC81
:100AB000139A44F23D31C0F60201029821F018FF6A
:100AC00044F23141C0F60201029A01901046FFF74C
:100AD00013FC02990090084602F0EEFF44F27130D8
:100AE000C0F60200C82113F07BFF14B080BD0000E7
:100AF00080B5AAB09C469646299028918DF89F20F3
:100B00008DF89E300DF11E0080210690CDF814C0A6
:100B1000CDF810E0FFF7E5FB299A289B9DF89F0090
:100B20009DF89E10EC46CCF80410CCF8000044F27E
:100B30007431C0F60201069821F0DAFE44F2314128
:100B4000C0F60201069A03901046FFF7D5FB0699FE
:100B50000290084602F0B0FF44F27130C0F6020085
:100B6000C82113F03DFF2AB080BD00000000000046
:100B700080B596B001468DF857000DF11700402260
:100B8000049003911146FFF7ACFB9DF8572044F207
:100B9000AC31C0F60201049821F0AAFE44F23141C2
:100BA000C0F60201049A02901046FFF7A5FB0499D3
:100BB0000190084602F080FF44F27130C0F6020056
:100BC000C82113F00DFF16B080BD0000000000002A
:100BD00080B596B002468DF85700149104A84021C4
:100BE0000392FFF77EFB9DF8570001280AD1FFE72B
:100BF000149B44F2D631C0F6020104A8012221F070
:100C000077FEFFE79DF85700002809D1FFE744F27F
:100C1000B931C0F6020104A8002221F069FEFFE705
:100C200044F23141C0F6020104A80290FFF764FBD0
:100C300002990190084602F03FFF44F27130C0F67D
:100C40000200C82113F0CCFE16B080BD00000000E9
:100C500080B594B0139003A840210290FFF741FBA8
:100C6000139A44F2E931C0F60201029821F040FEE5
:100C700044F23141C0F60201029A01901046FFF79A
:100C80003BFB02990090084602F016FF44F27130D7
:100C9000C0F60200C82113F0A3FE14B080BD00000E
:100CA000B0B5ADF5327D134684468DF8C702B091DC
:100CB0008DF8BF2200208DF8BE028DF8BD024FF4E2
:100CC00000715D9008465C93CDF86CC122F0DCFFAA
:100CD000AE909DF8BF02013022F0D6FFAD90A1A8E2
:100CE0003021FFF7FEFA5D98A0909DF8BF12002911
:100CF00007D0FFE7AD98B0999DF8BF22FFF7C9FA7A
:100D0000FFE7AD989DF8BF120022425441F66A7089
:100D1000C2F2000000788DF87F029DF8C70201380A
:100D2000014640285A9101F2AF835A99DFE811F049
:100D300041007B00AD00D400F9002701AC0BAC0BE7
:100D4000AC0BAC0BAC0BAC0BAC0BAC0BAC0BD601CB
:100D50000F02B202AC0BAC0B7103AC0BAC0BAC0BC7
:100D6000AC0BAC0BAC0BAC0BAC0BAC0BAC0BAC0BCB
:100D7000AC0B9103BE03F2031D0473049004AC0B8F
:100D8000AC0BAC0BAC0BAC0BAC0BAC0BAC0BCA0494
:100D90004E056E059705C405F30524061607510791
:100DA0009C073409AC0BAC0BAC0BAC0BAC0B200AA6
:100DB000F20AAE98012101700BF0B6FF41F66471A2
:100DC000C2F20001086000209D90FFE79D98052871
:100DD00019DCFFE7AD989D99405C41F66472C2F260
:100DE00000021268515C884204D0FFE7AE981121DE
:100DF000417008E0AE9810214170FFE7FFE79D9831
:100E000001309D90E2E702208DF8BE02AE999DF878
:100E1000BE2241F66A70C2F200000378AA200FF0E9
:100E20009BFD01F032BBAD9841F66471C2F2000146
:100E3000086008680FF050F9AE9802210170002098
:100E40009C90FFE79C9805280FDCFFE741F6647053
:100E5000C2F2000000689C99405CAE9A1144487050
:100E6000FFE79C9801309C90ECE707208DF8BE02CC
:100E7000AE999DF8BE2241F66A70C2F20000037876
:100E8000AA200FF069FD01F000BBAE9803210170AC
:100E9000AE981021417002208DF8BE02AE999DF8E7
:100EA000BE2241F66A73C2F200031B784FF0AA0C0F
:100EB000599060460FF050FD00205890589919F055
:100EC0000FF9599802F068FD0121589819F008F9B6
:100ED0001CF092FB01F0D9BAAE9804210170AE98D3
:100EE0001021417002208DF8BE02AE999DF8BE22FD
:100EF00041F66A73C2F200031B784FF0AA0C5790B8
:100F000060460FF029FD00205690569919F0E8F838
:100F1000579802F041FD5698579919F0E1F801F001
:100F2000B4BAAE980521017041F66B70C2F20000B0
:100F30000078AE9A507041F66D70C2F200000078F1
:100F4000AE9A907040F28C10C2F200000078AE9A17
:100F5000D07041F66C70C2F200000078AE9A107149
:100F60008DF8BE12AE999DF8BE2241F66A70C2F2AB
:100F700000000378AA200FF0EFFC01F086BAAE98CB
:100F80000621017041F67870C2F200000078AE9937
:100F9000487040F29010C2F200000078AE9988705C
:100FA00040F29410C2F200000078002812D1FFE74E
:100FB00041F67670C2F200000078AE99C87041F632
:100FC0006E70C2F200000078AE99087105208DF8AD
:100FD000BE0276E040F29410C2F2000000780128D0
:100FE00008D0FFE740F29410C2F200000078022817
:100FF00066D1FFE741F67070C2F200000078AE994A
:10100000C87041F67370C2F200000078AE990871A2
:1010100042F28200C2F200004178AE9A517100782B
:10102000AE99887141F67170C2F200000078AE99F5
:10103000C87141F67570C2F200000078AE9908726E
:1010400009208DF86F0200208DF86E02FFE79DF8F1
:101050006E0241F67071C2F200010978884224DA0A
:10106000FFE79DF86E0242F28401C2F2000101EB3B
:1010700040025278AE9B9DF86FC260441A549DF8AE
:101080006E0211F81010AE9A9DF86F321844104499
:1010900041709DF86F0201308DF86F02FFE79DF8F7
:1010A0006E0201308DF86E02D1E741F67070C2F227
:1010B00000000078092101EB40008DF8BE02FFE737
:1010C000FFE7AE999DF8BE2241F66A70C2F20000B9
:1010D0000378AA200FF040FC01F0D7B9AE98102198
:1010E0000170AE98417002208DF8BE02AE999DF855
:1010F000BE2241F66A70C2F200000378AA200FF007
:101100002BFC40F29410C2F2000000210170AD9857
:10111000007841F67871C2F200010870AD9840780D
:1011200040F29011C2F20001087001200870AD98E1
:10113000807841F67671C2F200010870AD98C078EF
:1011400041F66E71C2F20001087001F09EB9AE98CE
:1011500011210170AE981021417002208DF8BE025D
:10116000AE999DF8BE2241F66A70C2F20000037883
:10117000AA200FF0F1FB42F28200C2F2000000212F
:101180000180AD9A127841F67873C2F200031A70AA
:10119000AD9A527840F29013C2F200031A70012205
:1011A0001A70AD9A927841F67073C2F200031A7009
:1011B000AD9AD27841F67373C2F200031A70AD9AF9
:1011C000127912020280AD9A527903881A43028082
:1011D000AD98807941F67172C2F200021070AD983C
:1011E000C07941F67572C2F20002107008208DF8C5
:1011F0006D028DF86C12FFE79DF86C0241F670717C
:10120000C2F20001097888422CDAFFE79DF86C02EF
:1012100042F28401C2F20001002221F81020AD98B0
:101220009DF86D229DF86C321A44805C000221F812
:101230001300AD989DF86D229DF86C321A4410444D
:10124000407831F81320104321F813009DF86D0207
:1012500001308DF86D02FFE79DF86C0201308DF8CA
:101260006C02C9E741F67370C2F2000000780028F2
:1012700007D1FFE740F29410C2F200000121017093
:1012800006E040F29410C2F2000002210170FFE774
:1012900001F0FBB8AE9812210170AE981021417098
:1012A00002208DF8BE02AE999DF8BE2241F66A700A
:1012B000C2F200000378AA200FF04EFB822018F043
:1012C000DFFE41F67971C2F200010870087800284B
:1012D0000AD0FFE740F28C10C2F20000017801F062
:1012E000FE01017001F0DEB840F28D10C2F2000084
:1012F0000078012840F08B80FFE740F29210C2F2A4
:1013000000000121017040F28D10C2F200000022A5
:10131000027040F28E10C2F20000017040F2911093
:10132000C2F20000027041F67270C2F20000027058
:1013300040F29310C2F20000017040F28F10C2F22E
:101340000000017041F66B70C2F20000017040F2C3
:101350009410C2F20000017841F66D72C2F20002F0
:10136000117040F28C11C2F200010A7842F00102C1
:101370000A700A7802F0EF020A700A7802F0DF02BF
:101380000A700A7802F0F7020A700078002816D175
:10139000FFE748F69C30C2F20100694648600C2025
:1013A000086040F6F110C0F6020044F22F31C0F69A
:1013B00002014FF48062002320F0E2FC26E040F2BC
:1013C0009410C2F200000078012808D0FFE740F234
:1013D0009410C2F200000078022816D1FFE748F608
:1013E0000420C2F20100694648600C2008604EF2F9
:1013F0005120C0F6010044F22131C0F602014FF441
:101400008062002320F0BCFCFFE7FFE7FFE701F06C
:101410003CB8AE9815210170AE98102141700220A1
:101420008DF8BE02AE999DF8BE2241F66A70C2F2F6
:1014300000000378AA200FF08FFA1CF069F940F23F
:101440008C11C2F200010A7842F010020A7001F019
:101450001CB8AE9822210170AE9810214170022074
:101460008DF8BE02AE999DF8BE2241F66A70C2F2B6
:1014700000000378AA200FF06FFAAD9800781028CA
:1014800009D1FFE740F20040C4F20200102101221E
:1014900004F07EF808E040F20040C4F2020010219F
:1014A000002204F075F8FFE700F0EFBFAE982321AB
:1014B0000170AE981021417002208DF8BE02AE99E5
:1014C0009DF8BE2241F66A70C2F200000378AA209D
:1014D0000FF042FA42F66860C2F20000016891F82B
:1014E000922091F8933091F89410559010465491B1
:1014F0001946549A1BF0D4FE55990A6892F8953013
:1015000092F8961092F89720539018461BF0F4FE2C
:1015100000F0BBBFAE9824210170AE98102141703D
:1015200002208DF8BE02AE999DF8BE2241F66A7087
:10153000C2F200000378AA200FF00EFAAD980178ED
:1015400042788078529008461146529A1BF0A8FEC5
:10155000AD99CA780B794979519010465091194646
:10156000509A1BF0C9FE00F090BFAE982521017083
:10157000AE981021417002208DF8BE02AE999DF800
:10158000BE2241F66A70C2F200000378AA200FF072
:10159000E3F9AD9800788DF87802AD9840788DF831
:1015A0007902AD9880788DF87A02AD98C0788DF880
:1015B0007B029E9841F65431C2F20001086091ED21
:1015C000000A9FEDE91AB4EE410AF1EE10FA09DDC6
:1015D000FFE741F65430C2F200000021C4F282213C
:1015E0000160FFE741F65430C2F2000090ED000ABE
:1015F0009FEDDE1AB4EE410AF1EE10FA09DAFFE7C8
:1016000041F65430C2F200000021C4F234210160DE
:10161000FFE700F03ABFAE9826210170AE98102186
:10162000417002208DF8BE02AE999DF8BE2241F6AF
:101630006A70C2F200000378AA200FF08DF9AD980D
:10164000007841F66871C2F20001087000F01DBF19
:10165000AE9827210170AE981021417002208DF8BC
:10166000BE02AE999DF8BE2241F66A70C2F2000039
:101670000378AA200FF070F9822018F001FD41F6DE
:101680007971C2F2000108700878002802D0FFE7E3
:1016900000F008BFAD9800788DF87802AD984078DA
:1016A0008DF87902AD9880788DF87A02AD98C0787F
:1016B0008DF87B029E9841F65831C2F20001086015
:1016C00000F0E3BEAE983021017041F66B70C2F2BB
:1016D00000000078AE99487041F66D70C2F20000CB
:1016E0000078AE99887040F28C10C2F20000007849
:1016F000AE99C87041F66C70C2F200000078AE99E5
:10170000087140F29410C2F200000078002804D161
:10171000FFE7AE980021417118E040F29410C2F248
:1017200000000078012808D0FFE740F29410C2F2D0
:1017300000000078022808D1FFE741F67270C2F27B
:1017400000000078AE994871FFE7FFE741F64030AE
:10175000C2F2000000689E909DF87802AE998871F0
:101760009DF87902AE99C8719DF87A02AE99087217
:101770009DF87B02AE9948721BF0FAFB41F660308F
:10178000C2F2000080ED000A00689E909DF8780289
:10179000AE9988729DF87902AE99C8729DF87A0266
:1017A000AE9908739DF87B02AE9948730E208DF8B0
:1017B000BE02AE999DF8BE2241F66A70C2F20000E8
:1017C0000378AA200FF0C8F800F05FBEAE98312170
:1017D000017044F23420C2F200000178AE9A5170D8
:1017E0004178AE9A91708078AE99C87004208DF8D7
:1017F000BE02AE999DF8BE2241F66A70C2F20000A8
:101800000378AA200FF0A8F800F03FBE41F6403060
:10181000C2F2000000689E90AE98322101709DF8DF
:101820007802AE9948709DF87902AE9988709DF85B
:101830007A02AE99C8709DF87B02AE9908710520B6
:101840008DF8BE02AE999DF8BE2241F66A70C2F2D2
:1018500000000378AA200FF07FF800F016BE1BF0FE
:1018600087FB41F66030C2F2000000689E90AE989F
:10187000332101709DF87802AE9948709DF8790285
:10188000AE9988709DF87A02AE99C8709DF87B0277
:10189000AE99087105208DF8BE02AE999DF8BE2262
:1018A00041F66A70C2F200000378AA208DED4F0A5B
:1018B0000FF052F800F0E9BD1BF0D6FCAE983421D1
:1018C000017043F27C10C2F20000C178AE9A5170F0
:1018D0004178AE9A91708078AE99C87044F29020A9
:1018E000C2F200000178AE9A11714178AE9A51713E
:1018F0008078AE99887107208DF8BE02AE999DF868
:10190000BE2241F66A70C2F200000378AA200FF0EE
:1019100023F800F0BABD41F65C30C2F20000006866
:101920009E90AE98352101709DF87802AE9948706E
:101930009DF87902AE9988709DF87A02AE99C870C8
:101940009DF87B02AE99087105208DF8BE02AE9914
:101950009DF8BE2241F66A70C2F200000378AA2008
:101960000EF0FAFF00F091BD000082420000344208
:101970000000C84200007042AE983621017042F665
:101980006860C2F20000016891F8A510AE9A51702B
:10199000016891F89210AE9A9170016891F89310D5
:1019A000AE9AD170016891F89410AE9A11710168E5
:1019B00091F89510AE9A5171016891F89610AE9A0F
:1019C0009171016891F89710AE9AD1710168D1F8C0
:1019D00098104DF68362C4F21B32A1FB02139B0CDC
:1019E00097930368D3F89830A3FB02CE4FEA9E4E3C
:1019F00044F24024C0F20F040EFB143396939DED85
:101A0000960AB8EE400A1FED261A80EE010A8DED07
:101A1000950A9DED950A1FED292A80EE020A8DEDAB
:101A2000950A9DED950A80EE010A8DED950A9DEDD2
:101A3000970AB8EE400A9DED953A30EE030A8DED17
:101A4000990A999B9E939DF87832DDF8B8E28EF85A
:101A500008309DF87932DDF8B8E28EF809309DF84B
:101A60007A32DDF8B8E28EF80A309DF87B32DDF884
:101A7000B8E28EF80B30036893F89C30DDF8B8E2DA
:101A80008EF80C300368D3F8A030A3FB023E4FEA77
:101A90009E4ECDF85CE2D0F800E0DEF8A0E0AEFBB0
:101AA0000225AD0C05FB14EECDF858E29DED960A2B
:101AB000B8EE400A80EE010A8DED950A9DED950A7B
:101AC00080EE020A8DED950A9DED950A80EE010AE1
:101AD0008DED950A9DED970AB8EE400A9DED951A99
:101AE00030EE010A8DED980ADDF860E2CDF878E27B
:101AF0009DF878E2AE9C84F80DE09DF879E2AE9C0A
:101B000084F80EE09DF87AE2AE9C84F80FE09DF830
:101B10007BE2AE9C84F810E0006890F8A400DDF849
:101B2000B8E28EF8110012208DF8BE02AE989DF832
:101B3000BEE241F66A74C2F200042478AA254E90EF
:101B400028464E9D4D9129464C9272464B93234612
:101B5000CDF828C10EF000FF00F097BCAE983721F9
:101B6000017044F22C20C2F2000001689E919DF8A1
:101B70007812AE9A51709DF87912AE9A91709DF8D4
:101B80007A12AE9AD1709DF87B12AE9A11714068AC
:101B90009E909DF87802AE9948719DF87902AE99B1
:101BA00088719DF87A02AE99C8719DF87B02AE9952
:101BB000087209208DF8BE02AE999DF8BE2241F64A
:101BC0006A70C2F200000378AA200EF0C5FE00F091
:101BD0005CBCAE983821017041F66F70C2F2000013
:101BE0000078002804D0FFE7AE981021417003E090
:101BF000AE9811214170FFE742F27A00C2F2000074
:101C00004178AE9A91700078AE99C87042F27C002B
:101C1000C2F200004178AE9A11710078AE99487115
:101C200042F28000C2F200004178AE9A91710078D1
:101C3000AE99C87142F27E00C2F200004178AE9ABD
:101C400011720078AE9948720A208DF8BE02AE99E2
:101C50009DF8BE2241F66A70C2F200000378AA2005
:101C60000EF07AFE00F011BC822018F009FA41F65D
:101C70007971C2F2000108700878002815D0FFE7DA
:101C8000AE9839210170AE980021417002208DF884
:101C9000BE02AE999DF8BE2241F66A70C2F2000003
:101CA0000378AA200EF058FEFCE348F6FC10C2F2BE
:101CB000010000684FF0FF311FF0BEFE4321499044
:101CC000084603F021FF41F63C31C2F20001A1A811
:101CD0004890FEF74EFB40F28111C2F20001489A93
:101CE00047901046FEF708FB44F23821C2F200018B
:101CF00046900846489916F05FFA8DF852029DF812
:101D00005202002840F08280FFE701208DF8530244
:101D1000FFE79DF85302002871D0FFE7A09944F235
:101D20003820C2F2000040F2EC12C2F2000217F0BA
:101D30006FF98DF853029DF85302002801D1FFE797
:101D40005DE0A098FEF700FB40F2EE11C2F2000148
:101D5000088040F2EC10C2F200004178AE9A117097
:101D60000078AE994870AE98202181700020939041
:101D7000FFE7939840F2EE11C2F200010988884211
:101D80000BDAFFE7A0989399405CAE9A1144C870B3
:101D9000FFE7939801309390EBE7AE9840F2EE1195
:101DA000C2F200010A881044033044F2DA22C0F67D
:101DB000020245911146FEF7DCFAAE99459A138866
:101DC0001944043144F23243C0F6020344900846F9
:101DD0001946FEF7CEFA45990A8805328DF8BE22DB
:101DE000AE999DF8BE2241F66A73C2F200031B78D9
:101DF0004FF0AA0C439060460EF0AEFD89E744F226
:101E00003820C2F2000015F087FC09E044F23820C7
:101E1000C2F2000015F080FC42900BF0C1FDFFE71C
:101E200041F63C31C2F20001A1A84190FEF7A1FAAF
:101E300040F27C11C2F20001419A40901046FEF738
:101E40005BFA43F28011C2F200013F9008464199CB
:101E500016F0B2F98DF852029DF85202002863D1B3
:101E6000FFE701208DF85302FFE79DF85302002899
:101E700053D0FFE7A09943F28010C2F2000040F275
:101E8000EC12C2F2000217F0C3F88DF853029DF86D
:101E90005302002801D1FFE73FE0A098FEF754FA73
:101EA00040F2EE11C2F20001088040F2EC10C2F2E2
:101EB00000004178AE9A11700078AE994870AE98E3
:101EC0002021817000209290FFE7929840F2EE115D
:101ED000C2F20001098888420BDAFFE7A0989299C4
:101EE000405CAE9A1144C870FFE79298013092901E
:101EF000EBE740F2EE10C2F20000008803308DF8EC
:101F0000BE02AE999DF8BE2241F66A70C2F2000090
:101F10000378AA200EF020FDA7E743F28010C2F25A
:101F2000000015F0F9FB09E043F28010C2F2000056
:101F300015F0F2FB3E900BF033FDFFE748F6FC1086
:101F4000C2F20100006800213D913D9A3D9B1FF0C7
:101F5000F7F843213C90084603F0E2FD40F2EC1014
:101F6000C2F200003D990180AE9A39231370427885
:101F7000AE9B5A700078AE9A907003208DF8BE0226
:101F8000AE999DF8BE2241F66A70C2F20000037855
:101F9000AA200EF0E1FC78E24FF4006021F074FE1C
:101FA0007890822018F06CF841F67971C2F2000145
:101FB00008700878002815D0FFE7AE983A21017024
:101FC000AE980021417002208DF8BE02AE999DF8B6
:101FD000BE2241F66A70C2F200000378AA200EF019
:101FE000BBFC5FE2AD98A09048F6FC10C2F2010085
:101FF00000684FF0FF311FF01FFD43213B90084662
:1020000003F082FDA09844F21431C0F60201FEF7FD
:102010007FF9002821D0FFE741F63C31C2F20001F0
:10202000A1A83A90FEF7A5F940F28111C2F2000191
:102030003A9A39901046FEF75FF944F20631C0F63D
:1020400002013A9A38901046FEF756F9A0993A9A4A
:1020500037901046FEF750F92BE0A09844F20F316C
:10206000C0F60201FEF754F9002821D0FFE741F63F
:102070003C31C2F20001A1A83690FEF77AF940F295
:102080007C11C2F20001369A35901046FEF734F901
:1020900044F20631C0F60201369A34901046FEF73B
:1020A0002BF9A099369A33901046FEF725F9FFE7F1
:1020B000FFE77CA8A1A9012215F00EFE8DF8EF0123
:1020C0009DF8EF01002822D1FFE7FFE78098819972
:1020D0008A9A8B9B594050400843002813D0FFE751
:1020E00078997CA8042279AB329216F019F98DF810
:1020F000EF01789841F66A71C2F200010A783299CC
:10210000FEF732FCE2E77CA815F0D2FA06E07CA8E4
:1021100015F0CEFA31900BF043FCFFE748F6FC10C7
:10212000C2F20100006800213091309A309B1FF00C
:1021300007F843212F90084603F0F2FCAE983A21AD
:102140000170AE989921417002208DF8BE02AE99BF
:102150009DF8BE2241F66A70C2F200000378AA2000
:102160000EF0FAFB789821F067FD309878908CE1BA
:10217000AE9840210170AE981021417002208DF878
:10218000BE02AE999DF8BE2241F66A70C2F200000E
:102190000378AA200EF0E0FB822017F071FF41F6D1
:1021A0007971C2F2000108700878002815D0FFE7A5
:1021B000AE9840210170AE980021417002208DF848
:1021C000BE02AE999DF8BE2241F66A70C2F20000CE
:1021D0000378AA200EF0C0FB64E148F6FC10C2F2BE
:1021E000010000684FF0FF311FF026FC43212E90C4
:1021F000084603F089FCA1A830212D90FEF771F864
:1022000041F63C31C2F200012D98FEF7B2F840F2DF
:102210008111C2F200012D9A2C901046FEF76CF845
:1022200069462D9A8A6444F23823C2F2000303F10E
:10223000100C482465462B932A94299528912898B8
:1022400029992A9A51F8043B40F8043B043A289013
:1022500029912A92F3D12B9800682B9949682B9ADF
:1022600092682B9BDB6816F023FE8DF8DF019DF84A
:10227000DF0100283DD1FFE7A1A830212790FEF71C
:1022800030F841F63C31C2F200012798FEF771F8B0
:1022900040F27C11C2F20001279A26901046FEF708
:1022A0002BF86946279A8A6443F28013C2F200032E
:1022B00003F1100C4824654625932494239522911C
:1022C00022982399249A51F8043B40F8043B043A9D
:1022D000229023912492F3D125980068259949688A
:1022E000259A9268259BDB6816F0E2FD8DF8DE01E9
:1022F000FFE748F6FC10C2F20100006800212191BE
:10230000219A219B1EF01CFF43212090084603F0D8
:1023100007FCBAE0AE9841210170AE9810214170DF
:1023200002208DF8BE02AE999DF8BE2241F66A7079
:10233000C2F200000378AA200EF00EFB822017F0F4
:102340009FFE41F67971C2F20001087008780028FA
:1023500015D0FFE7AE9841210170AE980021417081
:1023600002208DF8BE02AE999DF8BE2241F66A7039
:10237000C2F200000378AA200EF0EEFA92E0AD98C7
:10238000A09048F6FC10C2F2010000684FF0FF3147
:102390001FF052FB43211F90084603F0B5FBA098A5
:1023A00044F21431C0F60201FDF7B2FF002821D03B
:1023B000FFE741F63C31C2F20001A1A81E90FDF7F3
:1023C000D8FF40F28111C2F200011E9A1D90104602
:1023D000FDF792FF44F20631C0F602011E9A1C90EE
:1023E0001046FDF789FFA0991E9A1B901046FDF735
:1023F00083FF2BE0A09844F20F31C0F60201FDF7F5
:1024000087FF002821D0FFE741F63C31C2F20001EE
:10241000A1A81A90FDF7ADFF40F27C11C2F20001B5
:102420001A9A19901046FDF767FF44F20631C0F67C
:1024300002011A9A18901046FDF75EFFA0991A9AA9
:1024400017901046FDF758FFFFE7FFE7A1A816F029
:1024500037FA8DF87F019DF87F01002803D0FFE750
:102460000BF09EFA1EE048F6FC10C2F20100006874
:1024700000211691169A169B1EF062FE43211590BC
:10248000084603F04DFB00E0FFE7AE9821F0D4FBD7
:102490000020AE90AD991490084621F0CDFB149821
:1024A000AD90FFE70DF5327DB0BD000000000000EB
:1024B00083B080B5ADF5097D8D938C928B9188901A
:1024C0008BA80690889A069B0DF11F0040F201210F
:1024D000059020F021FA48F65021C2F201010A6865
:1024E0004FF0FF3304901046039119461FF0A4FAF1
:1024F00044F2F331C0F6020102900846059920F03B
:10250000E7F903990A6800230190104619461A4614
:102510001EF016FE0DF5097DBDE8804003B0704742
:1025200080B58AB001208DF82700FFE743F6300020
:10253000C4F20200016841F004010160006800F08B
:10254000040003900398FFE740F60000C4F2020085
:102550000221012202900191009203F019F80198E2
:102560000490009905910691079104A9029802F040
:10257000DBFD0198FEF7FCFA40F27010C2F2000099
:102580000068FEF78DFA40F28810C2F20000006881
:1025900040F26C11C2F2000109680423009AFEF7B0
:1025A000A7FA0098FEF7ACF940F27410C2F20000EE
:1025B00001680098FEF70CFB40F27810C2F20000B0
:1025C0000068FEF745FB0AB080BD00000000000077
:1025D00080B58EB000200D900C900B900A90099061
:1025E0008DF8230044F21850C0F6020041F63C3149
:1025F000C2F20001079101F00FFE43F2D811C2F2BE
:102600000001012206900846079915F0F5FA002806
:102610005DD1FFE741F63C31C2F2000109A8059007
:10262000FDF7A7FE40F28111C2F20001059A049065
:102630001046FDF761FE05990390084615F0BCF9B8
:102640008DF822009DF82200002805D0FFE79DF8B4
:102650002200082804D1FFE701208DF8230007E0BD
:1026600000208DF823000BF09BF901F0B5FAFFE78D
:1026700041F63C31C2F2000109A80290FDF779FE53
:1026800040F27C11C2F20001029A01901046FDF75F
:1026900033FE02990090084615F08EF98DF822005D
:1026A0009DF82200002805D0FFE79DF822000828A9
:1026B00004D1FFE702208DF8230007E000208DF809
:1026C00023000BF06DF901F087FAFFE707E0002027
:1026D0008DF823000BF064F901F07EFAFFE79DF816
:1026E00023000EB080BD000080B586B000F0BCFCB9
:1026F00000200590059917F0F3FC4FF47A7001F073
:102700004BF90321059817F0EBFC2020059917F0F1
:10271000E7FC53200490059917F0E2FC0220039097
:1027200001F03AF90120049902900846029917F045
:10273000D7FC5620059917F0D3FC5420059917F0C3
:10274000CFFC55200190029917F0CAFC039801F0C4
:1027500023F90198059917F0C3FC06B080BD00006D
:1027600080B592B00020119010900F900E900D90B7
:10277000FFE743F63000C4F20200016841F00101B6
:102780000160006800F001000C900C98FFE7FFE783
:1027900043F63000C4F20200016841F0020101601A
:1027A000006800F002000B900B98FFE7FFE743F68C
:1027B0003000C4F20200016841F0040101600068C9
:1027C00000F004000A900A98FFE70020C4F202001B
:1027D000F021002209900891079202F0D9FE40F6FC
:1027E0000000C4F20200302106900591079A02F021
:1027F000CFFE40F20040C4F20200102101220490FA
:102800000391029202F0C4FE05980D9002990E9178
:102810000F9110910DAA06981146019202F084FCC6
:102820004FF481700D900020C1F211000E900798B6
:102830000F900998019902F077FC08980D90029981
:102840000E910F9110910998019902F06DFC0820EA
:102850000D900020C1F231000E9007980F9004985F
:10286000019902F061FC03980D9002990E910F916D
:1028700010910498019902F057FC20200D900798C0
:102880000E9002210F910498019902F04DFC12B0B4
:1028900080BD00000000000080B584B008F04CFE50
:1028A00000F04AFC02F0A8FE4FF4D871192202236E
:1028B0004FF0090C0390084611461A4663460DF086
:1028C00077FCFFF74DFF00F05FF9D82001F030F8FA
:1028D0000020029000F020F8012000F01DF844F2E2
:1028E000B010C0F60200026842F62400C2F20000F6
:1028F000029900F0F5FB00F0A7F90190FFF7F4FE54
:1029000009F006F900F090FA009000F065FB00F085
:10291000E3FB04B080BD000080B590B001468DF8A7
:102920003F00FFE79DF83F00002810D1FFE7FFE7D9
:1029300043F63000C4F20200016841F00201016078
:10294000006800F0020009900998FFE76DE09DF82B
:102950003F00012810D1FFE7FFE743F63000C4F243
:102960000200016841F002010160006800F002000D
:1029700008900898FFE757E09DF83F00022810D123
:10298000FFE7FFE743F63000C4F20200016841F0C0
:1029900004010160006800F0040007900798FFE759
:1029A00041E09DF83F00032810D1FFE7FFE743F621
:1029B0003000C4F20200016841F0040101600068C7
:1029C00000F0040006900698FFE72BE09DF83F001A
:1029D000042810D1FFE7FFE743F63000C4F20200FD
:1029E000016841F001010160006800F001000590FC
:1029F0000598FFE715E09DF83F00052810D1FFE797
:102A0000FFE743F63000C4F20200016841F0010123
:102A10000160006800F0010004900498FFE7FFE700
:102A2000FFE7FFE7FFE7FFE7FFE7FFE79DF83F006E
:102A300040F23401C2F2000151F820000A90012056
:102A40000B900C9002220D929DF83F2040F24C0317
:102A5000C2F2000353F822200DF1280C0390104617
:102A600002916146019302F05FFB9DF83F000199DE
:102A700051F82020029B33F820101046039A02F0F0
:102A800087FD10B080BD000080B584B001468DF890
:102A90000F009DF80F0040F24C02C2F2000252F803
:102AA000202040F23403C2F2000333F82000002358
:102AB00002901046029A019111461A4602F068FDF2
:102AC00004B080BD0000000080B584B001468DF8E0
:102AD0000F009DF80F0040F24C02C2F2000252F8C3
:102AE000202040F23403C2F2000333F820000290A9
:102AF0001046029A0191114602F02EFD04B080BDED
:102B000080B584B040F24C50C2F2000041F20001A6
:102B1000CAF200010160032141600421816010219B
:102B2000C160402002900298002804D1FFE72020D5
:102B30008DF80F0005E00298B0FA80F08DF80F00D4
:102B4000FFE79DF80F00013840F24C51C2F200013E
:102B500008614FF44070486100208861C8610862D4
:102B6000084604F0DDFA002804D0FFE701208DF8C4
:102B7000070003E000208DF80700FFE79DF807003D
:102B800004B080BD0000000080B584B043F20410A2
:102B9000C2F2000042F60001C4F20001016000210F
:102BA00041607F228260FF22C260016141618161D8
:102BB00005F0F2FF002801D0FFE7FFE743F2041021
:102BC000C2F20000002105F033FF43F2F2218842F7
:102BD0001CD0FFE71020072137221AF08DFB1421AB
:102BE000062203230290084611461A461AF058FBA3
:102BF00043F20411C2F20001002243F2F2230190D9
:102C0000084611461A4605F027FF19E0FFE743F68C
:102C10004000C4F20200016841F080510160006888
:102C200000F0805003900398FFE704F0E1F943F6C9
:102C30007000C4F20200016841F400410160FFE746
:102C400004B080BD0000000080B540F2A870C2F260
:102C5000000040F24011CAF2000101600021416011
:102C6000012282600822C260102303614023436175
:102C70004FF4C0738361C1614FF4006101624FF48E
:102C8000805141624FF40051816240F2DC71C2F226
:102C9000000102230B604A6006228A60CA600B6151
:102CA0004B618B6106F0F8F9002807D0FFE740F28E
:102CB0001000C2F200000121017006E040F2100095
:102CC000C2F2000000210170FFE740F2373000F04F
:102CD00007F840F21000C2F20000007880BD00004A
:102CE00080B58CB00B9000200A9040F29871C2F22F
:102CF000000101220A6010234B608A60C86040F224
:102D0000A87CC2F2000C4FF6FF7E09906046089145
:102D1000079272460693CDF814C0CDF810E006F085
:102D2000E3FA07990390084602F09EF902200899F9
:102D3000086006984860079A8A60099BCB600598EE
:102D4000049A06F0D1FA0321089A1160069951609D
:102D500008239360099BD360DDF814C0029060469D
:102D60001146049A06F0C0FA4FF40C710A9104213E
:102D7000089A116006995160079B9360DDF828C09E
:102D8000C2F80CC0DDF814C0019060461146049AE8
:102D900006F0AAFA0B99059A0090104606F080FA00
:102DA0000CB080BD00000000704700000000000073
:102DB00080B582B00190019944F64010C2F2000043
:102DC00006F0F6FC02B080BD80B582B044F640103B
:102DD000C2F2000006F014FD8DF806009DF8060012
:102DE000042804D1FFE700208DF8070016E09DF8C5
:102DF000060005280AD0FFE79DF80600062805D042
:102E0000FFE79DF80600072804D1FFE701208DF8B1
:102E1000070003E0FF208DF80700FFE79DF807009B
:102E200002B080BD0000000080B582B000208DF8A7
:102E3000070044F64011C2F2000142F60042C4F21B
:102E400001020A6048608860C86008614861886162
:102E5000084606F065FE002804D0FFE701208DF843
:102E60000700FFE79DF80700002810D1FFE744F6B0
:102E70004010C2F200004FF4006106F06DFA002825
:102E800004D0FFE701208DF80700FFE7FFE79DF87A
:102E9000070002B080BD000080B584B003900291AD
:102EA000019200208DF803000399029A019B44F6D9
:102EB0004010C2F2000006F0CFFF002804D0FFE768
:102EC00001208DF80300FFE79DF8030004B080BDEA
:102ED00080B586B001200290EFF30580039003983F
:102EE000002816D1FFE7EFF3108004900498002823
:102EF0000FD1FFE740F2A040C2F2000000680228B4
:102F00000AD1FFE7EFF3118005900598002803D060
:102F1000FFE70020019003E047F230500190FFE707
:102F200048F65030C2F201000068019B02A900225D
:102F300018F002FB06B080BD80B584B0039002910A
:102F4000019200208DF803000399029A019B44F638
:102F50004010C2F2000007F063F8002804D0FFE739
:102F600001208DF80300FFE79DF8030004B080BD49
:102F700080B586B002200290EFF30580039003989D
:102F8000002816D1FFE7EFF3108004900498002882
:102F90000FD1FFE740F2A040C2F200000068022813
:102FA0000AD1FFE7EFF3118005900598002803D0C0
:102FB000FFE70020019003E047F230500190FFE767
:102FC00048F65030C2F201000068019B02A90022BD
:102FD00018F0B2FA06B080BD80B58CB0FFE743F6BA
:102FE0003000C4F20200016841F080010160006815
:102FF00000F0800006900698FFE7FFE743F63000F8
:10300000C4F20200016841F080010160006800F034
:10301000800005900598FFE7202007901120089078
:103020000121099100220A9241F60043C4F20203F1
:103030000DF11C0C04901846039161460292019315
:10304000CDF800C002F070F81020079004980890A6
:1030500003990991029A0A920198009902F064F882
:103060000CF0D2FE0CB080BD80B596B043F22410B7
:10307000C2F200004FF02041016040F20411CAF298
:1030800000014160112108910021099155220A9205
:103090000E91152201920291039207918160C16005
:1030A000016141618161C16101624FF480524262FC
:1030B0008162C16201634163816308A901AA07F0CB
:1030C00087F8002803D0FFE700F086FDFFE716B081
:1030D00080BD00000000000080B500F0A9FA80BDAE
:1030E00080B584B00B4603908DF80B1001929DF8CB
:1030F0000B0040F26C01C2F2000151F8200003996C
:103100000860019803994860039800218160039842
:10311000C160039801610398816103980C224261A8
:103120000398C1610398009307F07AFD04B080BD55
:10313000FFE7FEE70000000086B0BFF34F8FBFF34C
:103140006F8F4EF65070CEF2000000210160BFF389
:103150004F8FBFF36F8F4EF61452CEF200021368FA
:1031600043F480231360BFF34F8FBFF34F8FBFF340
:103170006F8F0160BFF34F8FBFF36F8F10688003B5
:10318000002801D5FFE71AE0BFF34F8FBFF36F8F21
:103190004EF65070CEF2000000210160BFF34F8F59
:1031A000BFF36F8F4EF61450CEF20000016841F469
:1031B00000310160BFF34F8FBFF36F8FFFE74EF613
:1031C0008450CEF2000000210160BFF34F8F4EF615
:1031D0008050CEF20000006805900598C0F34E3094
:1031E0000490FFE70598C0F3C9000390FFE7049837
:1031F0000399890760F34D114EF66070CEF200001E
:1032000001600398411E03910028F0D1FFE7049864
:10321000411E04910028E5D1FFE7BFF34F8FBFF3B4
:103220006F8F4EF61450CEF200000068C0030028E5
:1032300001D5FFE73CE04EF68450CEF200000021BD
:103240000160BFF34F8F4EF68050CEF20000006851
:1032500002900298C0F34E300190FFE70298C0F34D
:10326000C9000090FFE701980099890760F34D11AC
:103270004EF66070CEF2000001600098411E009191
:103280000028F0D1FFE70198411E01910028E5D107
:10329000FFE7BFF34F8F4EF61450CEF200000168E7
:1032A00041F480310160BFF34F8FBFF36F8FFFE7B1
:1032B0004EF69C70CEF20000016841F004010160FE
:1032C00006B070470000000080B540F22820C2F22E
:1032D00000000021C0E9001131206B210DF03CFA03
:1032E00080BD00000000000080B542F62400C2F25C
:1032F0000000C06E01F0ECFB80BD0000000000008B
:1033000080B544F64010C2F20000C06B01F0E0FB53
:1033100080BD00000000000080B544F64010C2F2FD
:103320000000006C01F0D4FB80BD00000000000034
:1033300080B584B042F62400C2F20000806E01F035
:10334000C7FB41F24830C2F20000006846F2594122
:10335000C4F20201884209D3FFE746F20440C4F2F6
:10336000020000680001002833D48DE041F24830AB
:10337000C2F20000006846F2B901C4F202018842BC
:1033800009D3FFE746F20040C4F2020000680001E2
:1033900000281ED478E041F24830C2F200000068F4
:1033A00046F25901C4F20201884209D3FFE746F20E
:1033B0000400C4F2020000680001002809D463E0A0
:1033C00046F20000C4F202000068000100285BD54C
:1033D000FFE741F24830C2F2000001680A6822F0BB
:1033E00001020A60006846F25941C4F202018842B3
:1033F00008D3FFE746F20C40C4F202004FF0006130
:10340000016037E041F24830C2F20000006846F245
:10341000B901C4F20201884209D3FFE746F208402D
:10342000C4F202004FF000610160029120E041F21D
:103430004830C2F20000006846F25901C4F20201AD
:10344000884209D3FFE746F20C00C4F202004FF0B5
:1034500000610160019108E046F20800C4F2020038
:103460004FF0006101600191FFE701980290FFE7D2
:103470000298FFE741F24830C2F20000006801689C
:1034800041F001010160FFE704B080BD00000000D1
:1034900082B001900198007810384AF6AB21CAF644
:1034A000AA21A0FB010109090091009943F60862D5
:1034B000C0F60202515C019AD1650099042907D334
:1034C000FFE701980168042262F30901816506E0C3
:1034D0000198016840F2FF3291438165FFE701984E
:1034E000806D02B07047000086B0059000208DF816
:1034F00013000598806A039005988069002823D1FD
:10350000FFE70398032802901CD80299DFE801F036
:10351000020E0219059890F82F00C007002804D069
:10352000FFE701208DF81300FFE70CE00598C06A63
:10353000B0F1C07F04D1FFE701208DF81300FFE751
:1035400001E000E0FFE747E005988069B0F5005F23
:1035500026D1FFE70398032801901FD80199DFE8DF
:1035600001F00206021201208DF8130017E0059801
:1035700090F82F00C007002804D0FFE701208DF845
:103580001300FFE70BE00598C06AB0F1C07F04D1DB
:10359000FFE701208DF81300FFE700E0FFE71AE0E6
:1035A00003980328009004D3FFE70098032804D071
:1035B0000FE001208DF813000CE0059890F82F0023
:1035C000C007002804D0FFE701208DF81300FFE7B3
:1035D00000E0FFE7FFE7FFE79DF8130006B0704744
:1035E00084B00390029101920093039800680168EF
:1035F00021F48021016000980399096848600398CC
:103600008068402809D1FFE701980399096888601C
:10361000029803990968C86008E00298039909684C
:103620008860019803990968C860FFE704B0704793
:1036300080B586B0FFE743F63000C4F202000168AF
:1036400041F002010160006800F002000090009863
:10365000FFE74FF480500190112002900120039069
:103660000320049040F20040C4F2020001A901F0DE
:103670005BFD00F069F800F093F806B080BD000033
:1036800080B584B008208DF80F00FFE79DF80F008B
:10369000012844DBFFE79DF80D0040088DF80D0080
:1036A00040F20040C4F202004FF480510022029028
:1036B000019101F06DFF0520009000F09DF90122BD
:1036C0000298019901F064FF009800F095F90298C2
:1036D000019901F029FF002807D0FFE79DF80D00B0
:1036E00040F080008DF80D0006E09DF80D0000F020
:1036F0007F008DF80D00FFE7322000F07DF940F2E9
:103700000040C4F202004FF48051012201F040FF5A
:10371000FFE79DF80F0001388DF80F00B6E79DF820
:103720000D0004B080BD000080B582B000F00CF840
:1037300000F036F8CC210190084600F09DF8BE203C
:1037400000F09AF802B080BD80B582B040F200402F
:10375000C4F202004FF4805100220190009101F068
:1037600017FF4FF4FA7000F047F901220198009911
:1037700001F00EFF0F2000F03FF902B080BD000005
:1037800080B582B0FFF7E0FF00F00AF8CC2101908D
:10379000084600F071F8442000F06EF802B080BDD9
:1037A00080B584B000208DF80E00FFE740F20040A5
:1037B000C4F202004FF4805101F0B6FE002100284F
:1037C000029108D0FFE79DF80E000021C828B8BF7D
:1037D00001210291FFE70298C007002809D0FFE706
:1037E0009DF80E0001308DF80E00012000F004F964
:1037F000DCE79DF80E00C82804DBFFE701208DF808
:103800000F0034E000208DF80E00FFE7FFE740F2E4
:103810000040C4F202004FF4805101F085FE002107
:103820000028019108D1FFE79DF80E000021F02843
:10383000B8BF01210191FFE70198C007002809D016
:10384000FFE79DF80E0001308DF80E00012000F01A
:10385000D3F8DCE79DF80E00F02804DBFFE7012039
:103860008DF80F0003E000208DF80F00FFE79DF8B2
:103870000F0004B080BD000080B586B001468DF811
:10388000170001208DF81600FFE79DF816000828A4
:1038900045DCFFE79DF8170000F001008DF81500EA
:1038A0009DF8170040088DF817009DF815000028B6
:1038B00017D0FFE740F20040C4F202004FF48051FD
:1038C00000220490039101F063FE022000F094F8BE
:1038D00001220498039901F05BFE3C2000F08CF873
:1038E00016E040F20040C4F202004FF48051002282
:1038F0000290019101F04CFE3C2000F07DF8012285
:103900000298019901F044FE022000F075F8FFE7EB
:10391000FFE79DF8160001308DF81600B5E706B0F8
:1039200080BD0000000000007047000000000000A3
:1039300080B584B001468DF80F000420019106F097
:10394000C3FD9DF80F0041F63831C2F20001086056
:103950009DF80F00029002984FF4FA7148430290CC
:1039600041F63430C2F20000002101804EF2100016
:10397000CEF20000016841F00201016002994EF2AE
:103980001402CEF200021160016841F001010160F1
:1039900004B080BD0000000080B582B001901EF030
:1039A000CBFA012820D0FFE7019841F63431C2F26A
:1039B0000001098888420BD3FFE7019841F63431B2
:1039C000C2F200010988B0FBF1F01CF0B9FAFFE780
:1039D00041F63430C2F2000000880199B1FBF0F2E8
:1039E00002FB10100190FFE701984FF47A714843F1
:1039F00000F002F802B080BD86B005900020019072
:103A00004EF21400CEF2000000680090059841F6D6
:103A10003831C2F200010968484304904EF21800A0
:103A2000CEF2000000680390FFE74EF21800CEF2DD
:103A30000000006802900298039988421ED0FFE7B8
:103A400002980399884207D2FFE703980299401A27
:103A500001990844019008E000980299401A0399DE
:103A60000844019908440190FFE7029803900198E7
:103A70000499884201D3FFE701E0FFE7D5E706B0EC
:103A8000704700000000000080B582B00190002067
:103A90000090FFE700980199884209D2FFE74FF4B0
:103AA0007A70FFF7A9FFFFE7009801300090F1E777
:103AB00002B080BD0000000080B586B005900020F7
:103AC0000490039005980390FFE70398411C03912D
:103AD00000780A2804D0FFE7049801300490F4E746
:103AE000049801300490049844F2A821C2F2000125
:103AF000088000200290FFE70298049988420ED2C5
:103B0000FFE705980299405C44F2A822C2F2000245
:103B100011448870FFE7029801300290ECE744F20C
:103B2000A820C2F2000030F8022B42F62401C2F2B3
:103B3000000101900846019907F0CEFAFFE742F62E
:103B40002400C2F2000006F02BFF212801D1FFE77C
:103B5000F5E706B080BD000080B5022001F0C4FA90
:103B600080BD00000000000080B5082001F0BCFA14
:103B700080BD00000000000080B5202001F0B4FAF4
:103B80004FF4807001F0B0FA80BD0000000000002A
:103B900080B51EF0C5F948F61C21C2F20101096882
:103BA000884216D1FFE71EF0F3F942F66851C2F2DF
:103BB00000010968401A42F66451C2F2000108602F
:103BC000086842F66C51C2F200010A6810440860AD
:103BD000FFE780BD0000000080B5FFE70120FEF791
:103BE00053FFFBE70000000082B0019042F6405016
:103BF000C2F200000078002803D1FFE70020009007
:103C00000FE00198C0F3C62142F6C042C2F20002A2
:103C1000515CC0F3022021FA00F000F00100009096
:103C2000FFE7009802B0704780B584B0FFE742F626
:103C30004050C2F200008069019000F0C9FA039080
:103C4000039810F029FD0290FFE70298019988423D
:103C5000EDD1FFE703980299884203D2FFE707F00E
:103C6000E3FAFFE7039804B080BD00000000000005
:103C700080B58EB00B900A9109920A98002804D062
:103C8000FFE70998812803D3FFE700200C90BFE0ED
:103C90000B98FFF7A9FF002803D1FFE701200C9044
:103CA000B6E0FFF7C1FF0790BDF82C000B90EFF3D3
:103CB00005800D900D980B9941F40022002818BF43
:103CC00011460B910A980890099800280BD1FFE73C
:103CD0000B98079900220292029B00F09DF8039036
:103CE00003980C9094E00998082821D8FFE7002059
:103CF000049005900899099A04A8FCF7CAFA099952
:103D000001F007010B9A42EA01410B910B9941F036
:103D10004071079A049BDDF814C0019008461146D3
:103D20001A46634600F078F8039003980C906FE011
:103D300000F02EFE4FF4E02101EA004006900898C2
:103D40000168406805900491089808300890099827
:103D50000838099006980B9908430B900B9840F08F
:103D600080700799049A059B00F056F80390039819
:103D7000002803D1FFE700200C9049E006984FF699
:103D8000017108430B90FFE7099809281DD3FFE74D
:103D900008980168406805900491089808300890D8
:103DA0000998083809900B980799049A059B00F028
:103DB00033F803900B9801300B900398002803D13F
:103DC000FFE700200C9023E0DEE700200490059040
:103DD0000899099A04A8FCF75CFA0B9921F47F4131
:103DE0000B9109990B9A42EA01210B910B9941F031
:103DF0000071079A049BDDF814C000900846114634
:103E00001A46634600F008F8039003980C90FFE709
:103E10000C980EB080BD000080B58CB00A9009915E
:103E20000892079307200590FFE7059800286BD0BC
:103E3000FFE700F0B9FD0490049800F03F0042F65F
:103E4000C001C2F2000101EB0010069004984FF48B
:103E5000700101EA803001900A980199084309999C
:103E60004FF0805202EAD101084308994FF0005206
:103E700002EA9101084307994FF0804202EA51019A
:103E8000084340F04060039006980C30039907F017
:103E900037FB03909DF80F00400700282FD5FFE760
:103EA000039880F080600390039880F000400390B6
:103EB000039800F000400290099820F00040029919
:103EC000084306990860089820F0004002990843CA
:103ED00006994860079820F0004002990843069927
:103EE000886006980C30039910F0BAFB002805D0C2
:103EF000FFE707F0B1F901200B900AE004E0FFE7CB
:103F000005980138059090E707F09AF900200B908A
:103F1000FFE70B980CB080BD87B005900491039229
:103F20000498FE2804D8FFE70398FF2803D3FFE78F
:103F30000020069037E0002002900190FFE70198F2
:103F400003282DD8FFE705980199C840C00700282D
:103F50001ED0FFE704980090FFE70098039988427D
:103F600015D8FFE7009800F00701012202FA01F1DD
:103F7000029A02EBD00042F6C042C2F20002135C89
:103F800019431154FFE7009801300090E5E7FFE77F
:103F9000029820300290FFE7019801300190CEE7AF
:103FA00001200690FFE7069807B070470000000068
:103FB00080B58EB00D900C9142F64050C2F20000D8
:103FC0000021017042F6C041C2F20001802205903A
:103FD00008461146FCF785F943F61060C0F602006A
:103FE000182111F081FDADF82A000598016A42F20E
:103FF0006B72CEF2A51291420FD0FFE742F640500D
:10400000C2F2000042F26B71CEF2A5110162BDF85E
:104010002A1041800121C1611CE042F64050C2F2E9
:1040200000004088BDF82A1088420AD0FFE7BDF89A
:104030002A0042F64051C2F2000148800120C861C6
:1040400007E042F64050C2F20000C1690131C1618F
:10405000FFE7FFE742F64050C2F20000C0690128C6
:1040600012D1FFE742F64050C2F200000021417039
:1040700041608160C16042F6C000C2F200004FF4AE
:104080008061FCF72EF920E000200690FFE70698FB
:104090003F2819D8FFE7069842F6C001C2F2000196
:1040A00001EB00100B900B98C07B4007002806D551
:1040B000FFE70B98C16821F04061C160FFE7FFE7AF
:1040C000069801300690E2E7FFE742F64050C2F260
:1040D0000000C069012818D1FFE700F089F80890B6
:1040E0000898002804D0FFE700F07AF8099002E071
:1040F00000200990FFE7099842F64051C2F2000102
:10410000486100208861086103E000F071F80890C0
:10411000FFE7089800282ED0FFE70D980021FE2227
:1041200004910392FFF7F8FE0F21EF220290084658
:104130001146FFF7F1FE0421019008460399039A06
:10414000FFF7EAFE0090FFF76FFD0790079942F630
:104150004050C2F20000C2694FF60070C0F2003059
:10416000049BFFF759FE0C99002903D0FFE700F0EC
:1041700007F8FFE7FFE708980EB080BD00000000D9
:1041800080B584B042F64050C2F2000000780028AA
:1041900003D0FFE70120039016E042F64050C2F240
:1041A0000000012101700191FFF73EFD029002998C
:1041B0004FF60170C0F2003000220092009BFFF722
:1041C0002BFE01990391FFE7039804B080BD000026
:1041D00041F20400CEF200000068704700000000C9
:1041E00040F26800C2F20000006870470000000062
:1041F0004EF6FC50CEF20000016841F08071016083
:1042000041F20000CEF20000016841F001010160BE
:10421000012070470000000080B582B0019000913D
:1042200001980099002200F003F802B080BD000060
:1042300083B01346029001918DF8032001208DF880
:10424000020000208DF8010041F66820C2F2000053
:10425000407A002826DCFFE741F66820C2F2000021
:10426000417A002242540299437A00EB8303596059
:104270009DF80310437A03441972417A4B1C437230
:104280008DF801109DF801003030019908700198F7
:104290003A21417001982F2181700198C2708DF8E8
:1042A0000220FFE79DF8020003B070470000000005
:1042B00080B584B001468DF80F009DF80F0040F2E4
:1042C0004C02C2F2000252F8202040F23403C2F243
:1042D000000333F82000002302901046029A019157
:1042E00011461A4601F054F904B080BD00000000E8
:1042F00080B584B001468DF80F009DF80F0040F2A4
:104300004C02C2F2000252F8202040F23403C2F202
:10431000000333F82000012302901046029A019115
:1043200011461A4601F034F904B080BD00000000C7
:1043300080B59AB013468C468646ADF866008DF877
:104340006510ADF862200F93CDF838C0CDF834E099
:10435000FEF7CAF940F29810C2F2000090ED000A90
:10436000B8EE401BBDF8660000EE100AB8EEC02B98
:1043700081EE021BB0EE002B81EE021B8DED101BB7
:104380009DED101BBCEEC10B8DED160ABDF866004D
:104390004000149041F67370C2F2000000780028CB
:1043A00009D1FFE72120012115F09AFEBDF8620036
:1043B0004000139068E0212002210C9115F090FE3E
:1043C000BDF8660000EE100AB8EE401B9DF86500CF
:1043D00000EE100AB8EEC02B81EE021B8DED101B13
:1043E00040F29810C2F2000090ED000AB8EE401BB7
:1043F0009DED102B81EE021BB0EE002B81EE021B17
:104400008DED101B9DED101BBCEEC10B8DED150A43
:10441000BDF862004000129012989DF86510484364
:1044200013909DF857008DF85E00BDF856008DF88A
:104430005F001598000A8DF8600015988DF86100EE
:1044400033200DF15E0104220B9115F031FE149919
:10445000090A8DF85E1014998DF85F1037210A90C3
:1044600008460B990C9A15F023FE1299090A8DF84B
:104470005E1012998DF85F103921099008460B994A
:104480000C9A15F015FEFFE79DF85B008DF85E00B5
:10449000BDF85A008DF85F001698000A8DF860008C
:1044A00016988DF861002A200DF15E010422089112
:1044B00015F0FEFD1499090A8DF85E1014998DF817
:1044C0005F102F210222079008460899069215F0E6
:1044D000EFFD1399090A8DF85E1013998DF85F109E
:1044E0003121059008460899069A15F0E1FD5421FE
:1044F00001220490084603911146029215F0F0FD46
:104500000698FFF749FA002003990190084601999F
:1045100015F0E6FDF320F02115F0E2FD0398029975
:1045200015F0DEFD0698FFF737FA0398019915F0AC
:10453000D7FD5220029915F0D3FD5120019915F0B5
:10454000CFFDFF21069815F0CBFD1AB080BD00000D
:1045500085B004900391029201930020009001988D
:10456000B0F5804F22D1FFE70498029950F821005E
:10457000009000980021CCF6F0710840009003985C
:10458000016842688368D0F80CC041EA021141EA30
:10459000032141EA0C4180690843009908430090D7
:1045A00000980499029A41F8220006E004980299C2
:1045B0006FF0704240F82120FFE7002005B07047FF
:1045C00083B002900191002000900298019909683F
:1045D00050F821000090009840F28041CFF6C07161
:1045E00008400090019841688268C368D0F810C004
:1045F0001143194341EA0C01426911438269114395
:10460000C2691143026A1143426A1143826A11432B
:10461000C26A1143026B1143826B1143406B084322
:1046200000990843009001988068082805D1FFE7A9
:10463000009840F040000090FFE700980299019A2E
:10464000126841F822000198006BB0F5801F0CD170
:10465000FFE701980068002807D0FFE70198006B8A
:1046600002990A6810430860FFE701980068002873
:1046700007D0FFE70198406B02990A681043086071
:10468000FFE7002003B0704784B0039002910192CD
:10469000002000900398019900EB81004068009091
:1046A000009800F0404000900298016842688368DA
:1046B000D0F80CC041EA021141EA032141EA0C4161
:1046C00002690023CFF6F07303EB025211434269F3
:1046D000FE3241EA02618069084300990843009074
:1046E00000980399019A01EB8201486003980068E1
:1046F000C002002813D5FFE70398406820F470003B
:104700000090029800690021CFF6F07101EB005093
:10471000009908430090009803994860FFE7002043
:1047200004B070470000000084B0039002910020A4
:104730000190009002980068012823D0FFE70398B9
:1047400000680190019847F6FF7188430190029834
:1047500041688268C368D0F810C01143194341EA28
:104760000C014269114382691143C2691143026A13
:104770001143406A08430199084301900198039945
:1047800008602FE0039800680190019820F4F84039
:1047900001900298C169026A406A11430843019975
:1047A00008430190039840680090009847F6FF7115
:1047B00088430090029841688268C368D0F810C0AE
:1047C0001143194341EA0C014269114380690843CE
:1047D0000099084300900198039908600098039994
:1047E0004860FFE7002004B07047000000000000B0
:1047F00082B001900091009801994A6942EA400014
:104800004861002002B0704784B003900291019289
:104810000020009002990A684B68D1F808C0C96866
:104820001A436FF01F0303EB4C131A4342EA412172
:1048300000910099039A116104B0704700000000D4
:1048400080B585B004900391029200200190009001
:104850000298012838D0FFE70498806801900198F9
:1048600000F0704001900398016842688368D0F8B6
:104870000CC001396FF00F0E0EEB021211436FF0F6
:10488000FF0202EB032211434FF20002CFF6FF7248
:1048900002EB0C32114302690023CFF6FF7303EBE6
:1048A0000242114342690023CFF6F07303EB025238
:1048B00011438069013841EA006001990843019081
:1048C00001980499886047E00498806801900198F5
:1048D00040F6FF71CFF60F71084001900398C16850
:1048E00040694FF20002CFF6FF7202EB0131002265
:1048F000CFF6F07202EB0050084301990843019093
:104900000498C0680090009800F0704000900398F0
:10491000016842688368D0F810C001396FF00F0E4B
:104920000EEB021211436FF0FF0202EB0322114360
:104930000022CFF6FF7202EB0C421143806901386E
:1049400041EA00600099084300900198049988604A
:1049500000980499C860FFE7002005B080BD000002
:10496000094B1A6A002A18BF002003EB800210B41A
:104970009469002C04DB4FF0FF3443F8201094615D
:104980005DF8044B704700BFC0010020000000002C
:1049900080B542F64050C2F20000013010F03CFCFD
:1049A00080BD00000000000080B542F64050C2F219
:1049B0000000043010F020FC80BD0000000000006A
:1049C00082B00090009890F83500022807D0FFE7E9
:1049D00000988021416501208DF807000EE00098C5
:1049E000052180F8351000980068016821F0010168
:1049F0000160FFE700208DF80700FFE79DF8070042
:104A000002B070470000000080B584B002900298A8
:104A1000002804D1FFE701208DF80F004BE0029839
:104A200090F83500022804D1FFE702208DF80F002E
:104A300041E002980068016821F0010101600298DC
:104A400000680021016002980068416002980068D7
:104A5000816002980068C160029800680161029854
:104A600000682122426102980091FEF711FD019039
:104A70000298C06D3F2101FA00F001998860029808
:104A80000099C163029801640298416402988164AC
:104A90000298C1640298016502984165029880F805
:104AA0003510FFE70298002180F83410FFE700205E
:104AB0008DF80F00FFE79DF80F0004B080BD0000E7
:104AC00081B000900098406D01B070470000000078
:104AD00080B586B005900020039040F26800C2F2D5
:104AE0000000006848F2B511C1F64E31A0FB01018B
:104AF000890A02910599896D0191019909680491CA
:104B00000499059AD26DD140090700291BD5FFE70A
:104B10000598006800684007002813D5FFE705984E
:104B20000068016821F0040101600598C06D08214A
:104B300001FA00F0019988600598416D41F001018A
:104B40004165FFE7FFE704980599C96DC840C007B4
:104B5000002815D0FFE70598006840690006002886
:104B60000DD5FFE70598C06D012101FA00F001990C
:104B700088600598416D41F002014165FFE7FFE75C
:104B800004980599C96DC8404007002815D5FFE76E
:104B9000059800680068800700280DD5FFE7059894
:104BA000C06D042101FA00F0019988600598416DFB
:104BB00041F004014165FFE7FFE704980599C96DDD
:104BC000C840C00600284BD5FFE70598006800687C
:104BD0000007002843D5FFE70598C06D102101FAB2
:104BE00000F001998860059800680068400300287B
:104BF0001CD5FFE7059800680068000300280AD468
:104C0000FFE70598006C002804D0FFE70598016CC9
:104C10008847FFE709E00598806C002804D0FFE78B
:104C20000598816C8847FFE7FFE717E00598006863
:104C30000068C005002807D4FFE7059800680168F0
:104C400021F008010160FFE70598006C002804D0FE
:104C5000FFE70598016C8847FFE7FFE7FFE7FFE7FD
:104C600004980599C96DC8408006002840F19580D8
:104C7000FFE7059800680068C006002840F18C80B6
:104C8000FFE70598C06D202101FA00F001998860C6
:104C9000059890F83500052838D1FFE70598006899
:104CA000016821F01601016005980068416921F052
:104CB000800141610598006C002805D1FFE7059847
:104CC000806C002807D0FFE705980068016821F094
:104CD00008010160FFE70598C06D3F2101FA00F06F
:104CE00001998860FFE70598002180F83410FFE7FC
:104CF0000598012180F835100598006D002804D032
:104D0000FFE70598016D8847FFE781E00598006897
:104D10000068400300281CD5FFE70598006800687C
:104D2000000300280AD4FFE70598406C002804D04F
:104D3000FFE70598416C8847FFE709E00598C06BDD
:104D4000002804D0FFE70598C16B8847FFE7FFE71D
:104D500021E0059800680068C005002811D4FFE72D
:104D600005980068016821F010010160FFE70598CF
:104D7000002180F83410FFE70598012180F83510F4
:104D8000FFE70598C06B002804D0FFE70598C16BCA
:104D90008847FFE7FFE7FFE7FFE70598406D00283A
:104DA00036D0FFE70598406DC007002826D0FFE702
:104DB0000598052180F8351005980068016821F0F4
:104DC00001010160FFE703980130039002998842D6
:104DD00001D9FFE707E0FFE7059800680068C00712
:104DE0000028F0D1FFE7FFE70598002180F8341094
:104DF000FFE70598012180F83510FFE70598C06CA2
:104E0000002804D0FFE70598C16C8847FFE7FFE75B
:104E100006B080BD0000000080B586B00490002080
:104E2000039000F0D1FB02900498002804D1FFE722
:104E300001208DF81700A7E00498406A002801D0EF
:104E4000FFE7FFE7FFE70498002180F83410FFE751
:104E50000498022180F8351004980068016821F058
:104E600001010160FFE7049800680068C00700289E
:104E700012D0FFE700F0A8FB0299401A06280AD3D7
:104E8000FFE70498202141650498032180F835103C
:104E90008DF8171078E0E6E7049800680068039042
:104EA000039848F23F01CEF21001084003900498A5
:104EB00041688268C368D0F810C01143194341EAC1
:104EC0000C014269114382691143C2691143006AAE
:104ED00008430399084303900498406A042808D1C2
:104EE000FFE70498C16A006B0843039908430390E5
:104EF000FFE703980499096808600498006840690E
:104F00000390039820F0070003900498406A0399E7
:104F1000084303900498406A04281CD1FFE70498D2
:104F2000806A0399084303900498C06A002811D04E
:104F3000FFE70498FEF7D8FA00280AD0FFE70498A4
:104F4000402141650498012180F835108DF8171033
:104F50001AE0FFE7FFE7039804990968486104989D
:104F6000FEF796FA01900498C06D3F2101FA00F017
:104F7000019988600498002141650498012280F815
:104F800035208DF81710FFE79DF8170006B080BD9B
:104F900080B588B0069005910492039300208DF8A7
:104FA0000B000698806D0190FFE7069890F834009A
:104FB000012804D1FFE702208DF81F004DE006987C
:104FC000012180F83410FFE7FFE7069890F83500DC
:104FD000012833D1FFE70698022180F835100698A2
:104FE0000021416506980599049A039BFEF7F8FA9B
:104FF0000698C06D3F2101FA00F00199886006987B
:105000000068016841F01601016006980068416976
:1050100041F0800141610698006C002807D0FFE74D
:1050200006980068016841F008010160FFE70698F2
:105030000068016841F00101016009E0FFE706989E
:10504000002180F83410FFE702208DF80B00FFE705
:105050009DF80B008DF81F00FFE79DF81F0008B0BA
:1050600080BD00000000000080B582B00190019872
:10507000FEF70AFD02B080BD80B582B00146ADF8F2
:105080000600BDF80600B0F5807F09D1FFE748F6BD
:105090001420C2F20100006869461CF075FA1EE097
:1050A000BDF80600082819D1FFE740F20040C4F21D
:1050B0000200082100F038FA002807D0FFE741F687
:1050C0006F70C2F200000021017006E041F66F70BF
:1050D000C2F2000001210170FFE7FFE7FFE702B025
:1050E00080BD00000000000080B582B00146ADF830
:1050F000060043F61440C4F201000068BDF8062023
:1051000010420CD0FFE7BDF8060043F61441C4F28C
:1051100001010860BDF80600FFF7AEFFFFE702B02F
:1051200080BD00000000000090B00F900E910020A4
:105130000D900C900B900A900D90FFE70D980F28A2
:1051400000F2ED81FFE70D98012101FA00F00C90CB
:105150000E9800680C9908400B900B980C998842A7
:1051600040F0D881FFE70E984068022805D0FFE79D
:105170000E984068122826D1FFE70F980D996FF01E
:10518000030202EA51010844006A0A900D9800F0F7
:10519000070080000F2101FA00F00A9921EA0000BF
:1051A0000A900E9800690D9901F007018900884066
:1051B0000A9908430A900A980F990D9B02EA530234
:1051C00011440862FFE70F9800680A900D984000AC
:1051D000032101FA00F00A9921EA00000A900E98D2
:1051E000406800F003000D99490088400A9908437F
:1051F0000A900A980F9908600E98406801280FD00D
:10520000FFE70E98406802280AD0FFE70E98406832
:10521000112805D0FFE70E98406812282FD1FFE72C
:105220000F9880680A900D984000032101FA00F061
:105230000A9921EA00000A900E98C0680D99490069
:1052400088400A9908430A900A980F9988600F9835
:1052500040680A900D98012101FA00F00A9921EAAC
:1052600000000A900E984068C0F300100D99884025
:105270000A9908430A900A980F994860FFE70F9827
:10528000C0680A900D984000032101FA00F00A99C5
:1052900021EA00000A900E9880680D994900884024
:1052A0000A9908430A900A980F99C8600E98C07925
:1052B000C006002840F12D81FFE7FFE743F64400D8
:1052C000C4F20200016841F480410160006800F40A
:1052D000804009900998FFE70D9820F0030043F6FD
:1052E0000801C4F2010140580A900D9800F0030033
:1052F00080000F2101FA00F00A9921EA00000A90CB
:105300000F980021C4F20201884203D1FFE7002078
:1053100008907AE00F9840F20041C4F202018842FE
:1053200003D1FFE7012007906CE00F9840F60001E1
:10533000C4F20201884203D1FFE7022006905EE03A
:105340000F9840F60041C4F20201884203D1FFE702
:105350000320059050E00F9841F20001C4F20201D1
:10536000884203D1FFE70420049042E00F9841F205
:105370000041C4F20201884203D1FFE705200390F7
:1053800034E00F9841F60001C4F20201884203D1D3
:10539000FFE70620029026E00F9841F60041C4F294
:1053A0000201884203D1FFE70720019018E00F981F
:1053B00042F20001C4F20201884203D1FFE7082053
:1053C00000900AE00F9842F20041C4F202010A2262
:1053D000884208BF09220092FFE700980190FFE78A
:1053E00001980290FFE702980390FFE7039804906A
:1053F000FFE704980590FFE705980690FFE70698F9
:105400000790FFE707980890FFE70898C0B20D994A
:1054100001F00301890088400A9908430A900A981C
:105420000D9921F0030143F60802C4F201028850ED
:1054300043F60040C4F2010000680A900B980A99F4
:1054400021EA00000A900E988079C007002805D054
:10545000FFE70B980A9908430A90FFE70A9843F67A
:105460000041C4F20101086043F60440C4F20100A7
:1054700000680A900B980A9921EA00000A900E9899
:1054800080798007002805D5FFE70B980A99084323
:105490000A90FFE70A9843F60441C4F2010108604C
:1054A00043F60840C4F2010000680A900B980A997C
:1054B00021EA00000A900E988079C006002805D5E0
:1054C000FFE70B980A9908430A90FFE70A9843F60A
:1054D0000841C4F20101086043F60C40C4F2010027
:1054E00000680A900B980A9921EA00000A900E9829
:1054F00080798006002805D5FFE70B980A990843B4
:105500000A90FFE70A9843F60C41C4F201010860D3
:10551000FFE7FFE7FFE70D9801300D900EE610B0B2
:10552000704700000000000082B00A460190ADF80C
:10553000021001980069BDF80210084204D0FFE78C
:1055400001208DF8010003E000208DF80100FFE745
:105550009DF8010002B0704782B00A460190ADF894
:10556000021001984069BDF802100840884206D137
:10557000FFE7BDF8020000040199886104E0BDF86E
:10558000020001998861FFE702B070470000000047
:1055900082B013468C460190ADF802108DF80120C0
:1055A0009DF80100002805D0FFE7BDF80200019931
:1055B000886105E0BDF80200000401998861FFE7F9
:1055C00002B070470000000048F6CC10C2F20100A3
:1055D000006870470000000040F29C10C2F200001A
:1055E000007848F6CC11C2F201010A681044086044
:1055F000704700000000000080B582B043F6004014
:10560000C4F20200016841F400710160016841F4D4
:1056100080710160032000F0AFFA0F2000F008F85D
:10562000019000F049FA002002B080BD00000000A7
:1056300080B582B0009040F26800C2F200000068BD
:1056400040F29C11C2F2000109784FF47A72B2FB69
:10565000F1F1B0FBF1F004F053FF002804D0FFE7B4
:1056600001208DF8070018E000980F280DD8FFE7FB
:1056700000994FF0FF30002200F05EFA009840F2EF
:10568000A011C2F20001086003E001208DF80700BC
:1056900003E000208DF80700FFE79DF8070002B047
:1056A00080BD00000000000081B0009001B0704794
:1056B00080B584B0039003980068806B02900398D3
:1056C0000068406B01909DF808004007002824D531
:1056D000FFE79DF80400400700281ED5FFE7039868
:1056E0000068416B21F004014163039800680421C4
:1056F000C1630398D0F8A42042F00102C0F8A420AE
:10570000039880F8A110FFE70398002180F8A0100B
:10571000FFE70398FFF7C8FFFFE79DF80800800741
:10572000002825D5FFE79DF80400800700281FD535
:10573000FFE703980068416B21F002014163039881
:1057400000680221C1630398D0F8A41041F002015F
:10575000C0F8A4100398042180F8A110FFE7039873
:10576000002180F8A010FFE70398FFF79DFFFFE7F7
:105770009DF80800C00700281DD0FFE79DF8040031
:10578000C007002817D0FFE703980068416B21F09D
:1057900001014163039800680121C163039880F807
:1057A000A110FFE70398002180F8A010FFE70398FD
:1057B00000F02AF8FFE79DF80800000700281ED532
:1057C000FFE79DF804000007002818D5FFE70398BD
:1057D0000068416B21F008014163039800680821CB
:1057E000C1630398012180F8A110FFE7039800210D
:1057F00080F8A010FFE7039800F0A6F8FFE704B0D8
:1058000080BD00000000000080B586B0059000203B
:105810000390FFE70398002851D1FFE70398C0EBFE
:10582000C00042F6A401C2F2000101EB8000406812
:1058300000283FD4FFE70398C0EBC00042F6A40164
:10584000C2F2000101EB800251F82000D368D2F8C7
:1058500010C003FB0CF352685A43039BC3EBC30312
:1058600001EB83035B6902FB030004900598049A33
:10587000039B029111461A4600F06AF805990968DF
:105880004A6A42F001024A620399C1EBC102029BDB
:1058900003EB82025268019008461146FFF760F858
:1058A0000398C0EBC000029901EB80004FF0FF327B
:1058B0004260FFE7FFE7039801300390AAE70598ED
:1058C000002100F005F806B080BD000000000000D7
:1058D00083B001900091FFE7019890F8A0000128A3
:1058E00004D1FFE702208DF80B0029E00198012187
:1058F00080F8A010FFE7FFE70198022180F8A110CF
:1059000001980068416B21F001014163009846F65F
:105910004001C4F20101086001980068416B41F048
:10592000010141630198012180F8A110FFE701986E
:10593000002180F8A010FFE700208DF80B00FFE7A2
:105940009DF80B0003B0704781B0009001B0704724
:1059500080B586B0049003910292FFE7049890F816
:10596000A000012804D1FFE702208DF8170029E0EC
:105970000498012180F8A010FFE7FFE704980221B6
:1059800080F8A11004980299342201FB02003830FB
:10599000019003980199486204980199029A05F0D0
:1059A0006FFC0498006801214162049880F8A110FE
:1059B000FFE70498002180F8A010FFE700208DF891
:1059C0001700FFE79DF8170006B080BD000000003B
:1059D00080B581B00090009840784EF69851CEF294
:1059E000000108600098007800282BD0FFE700989D
:1059F00040684EF69C51CEF2000108600098017B91
:105A00000907C27A41EA02610278037A90F809C074
:105A100090F80AE041EACE4190F80DE041EA8E416B
:105A200090F80EE041EA4E41C07B41EA004040EA76
:105A30000C2040EA430010434EF6A051CEF2000184
:105A400008600BE04EF69C50CEF200000021016091
:105A50004EF6A050CEF200000160FFE701B080BD1D
:105A6000BFF35F8F4EF62450CEF20000016821F4A0
:105A7000803101604EF69450CEF2000000210160AA
:105A8000704700000000000081B00090009840F0D6
:105A900001004EF69451CEF2000108604EF62450FB
:105AA000CEF20000016841F480310160BFF34F8FF6
:105AB000BFF36F8F01B0704780B582B0FFE743F648
:105AC0004000C4F20200016841F0805101600068AA
:105AD00000F0805001900198FFE7FFE743F6440093
